:020000040800F2
:1000000038050020CD010008D1010008D301000807
:10001000D5010008D7010008D90100080000000040
:10002000000000000000000000000000DB010008EC
:10003000DD01000800000000DF010008E101000808
:10004000E3010008E3010008E3010008E301000800
:10005000E3010008E3010008E3010008E3010008F0
:10006000E3010008E3010008E3010008E3010008E0
:10007000E3010008E3010008E3010008E3010008D0
:10008000E3010008E3010008E3010008E3010008C0
:10009000E3010008E3010008E3010008E3010008B0
:1000A000E3010008E3010008E3010008E3010008A0
:1000B000E3010008DD030008E3010008E301000894
:1000C000E3010008E3010008E3010008E301000880
:1000D000E3010008E1040008E3010008E30100086F
:1000E000E3010008E3010008E3010008E301000860
:1000F000E3010008E3010008E3010008E301000850
:10010000E3010008E3010008E3010008E30100083F
:10011000E3010008E3010008E3010008E30100082F
:10012000E3010008E3010008E3010008E30100081F
:1001300000F002F800F03AF80AA090E8000C8244BF
:100140008344AAF10107DA4501D100F02FF8AFF29C
:10015000090EBAE80F0013F0010F18BFFB1A43F0A5
:10016000010318471C0800003C080000103A24BF97
:1001700078C878C1FAD8520724BF30C830C144BF0C
:1001800004680C607047000000230024002500264E
:10019000103A28BF78C1FBD8520728BF30C148BFEA
:1001A0000B6070471FB51FBD10B510BD00F02DF8D6
:1001B0001146FFF7F7FF00F095FA00F04BF803B493
:1001C000FFF7F2FF03BC00F0CDF90000084800473C
:1001D000FEE7FEE7FEE7FEE7FEE7FEE7FEE7FEE7F7
:1001E000FEE7FEE703480449024A044B704700005B
:1001F00031010008380100203805002038010020B6
:1002000070477047704770477047754600F02CF88C
:10021000AE4605006946534620F00700854618B0F3
:1002200020B5FFF7DFFFBDE820404FF000064FF09C
:1002300000074FF000084FF0000B21F00701AC461B
:10024000ACE8C009ACE8C009ACE8C009ACE8C0093A
:100250008D46704710B50446AFF300802046BDE8D8
:100260001040FFF7ACBF000000487047D4000020EA
:100270001448806940F0040012498861084680698A
:1002800040F0200088611048006820F00F000E49FF
:1002900008600846006840F0030008600B480068EA
:1002A00020F47060094908600846006840F4407016
:1002B000086006480C30006840F0040003490C3127
:1002C000086070470010024004080140001401401B
:1002D00000B5002015490861C8601420486100205D
:1002E0008861C8610846006840F00100086008465F
:1002F00040680F4908400D494860084600680D49AC
:1003000008400A4908600846006820F48020086018
:100310000846406820F4FE00486000208860002104
:100320004FF0006000F008F800BD0000001002402F
:100330000000FFF8FFFFF6FE024A0A400243024BAC
:100340001A60704780FFFF1F08ED00E030B50446DB
:100350000025FFF7BDFF1F48006840F480301D49AD
:10036000086000BF1B480068400C0028FAD04FF41A
:10037000806018494860A01EC4B20846406840EA40
:10038000844048600846406840F480304860124825
:10039000006840F03200104908600E48006840F0E4
:1003A00080700C49086000BF0A480068400E0028B1
:1003B000FAD00848406840F002000649486005E06D
:1003C00004484068C0F3870505F00305022DF7D106
:1003D00030BD0000001002400020024009480088A3
:1003E00000F0010038B10848006808B9012000E0B9
:1003F0000020054908600348008820F001000149F9
:10040000088070471004004088812242314A926976
:1004100042F400522F4B9A611A46926942F0100240
:100420009A612D4A126822F070622B4B1A601A46AC
:10043000126842F030621A601A46126822F0704266
:100440001A601A46126842F030421A60234A10803D
:10045000121F1180214A143A128842F070021F4B79
:10046000143B1A801A46128842F008021A801B4A6E
:100470000C3A128842F00102184B0C3B1A80174AC2
:10048000143A128842F4E042144B143B1A801A4684
:10049000128842F400621A80104A0C3A128842F024
:1004A00010020E4B0C3B1A800C4A1832128842F490
:1004B00000420A4B18331A808022084B2C3B1A80CA
:1004C0001B1D1A801A1F128842F001021B1F1A807E
:1004D0007047000000100240001001402C34014021
:1004E0001D49098801F0200111B31B49091D098824
:1004F000C8B21A49098801F40041C9B917490988E5
:1005000001F4804161B10A2803D00021134A11800F
:1005100020E01249098841F40041104A118019E095
:100520000D2806D10D49098841F480410B4A1180FC
:1005300010E00A490988C1F30D01094A50540749DE
:100540000988491C054A118011460988C72901DD1F
:100550000021118070470000003801400800002091
:100560000C00002000BF70474FF0E021096921F026
:1005700004014FF0E0221161C21700EB5272C2F386
:10058000C702074B1A701946097801EB4102C2EB0A
:10059000C1114FF6FF7202EAC101024A1180704791
:1005A000000000200200002001460D4A12884A4344
:1005B0004FF0E0235A6100229A6101221A6100BFC4
:1005C0004FF0E022106900F001021AB100F480320D
:1005D000002AF5D000224FF0E0231A619A6170479B
:1005E0000200002001200749086000200649C1F8E8
:1005F0008401012003490831086000200249C1F844
:10060000A0017047808121420080214210B5002066
:100610000C49086001200C49C1F8840109490831DE
:10062000086000200749203108604FF496700749A0
:10063000088040F27710091D08804FF4FA70FFF728
:10064000B3FF10BD8081214200802142343401403B
:100650002248806940F008002049886120480068ED
:1006600020F00F001E4908600846006840F00300B3
:10067000086001201A490C3108601948006820F010
:10068000F000174908600846006840F03000086034
:10069000022013490C3108601148006820F4706092
:1006A0000F4908600846006840F440700860042064
:1006B0000B490C3108600A48001D006820F00F004B
:1006C0000749091D08600846006840F003000860FB
:1006D000881503490C310860704700000010024083
:1006E000000C014040F29F1500BF4FF4F57400BFAD
:1006F0000920FFF72BFE4820FFF736FFFFF7B8FD74
:1007000000F0E2F8002140F28330FFF77FFEFFF7B0
:100710009FFF0020464908604649C1F888014648C5
:100720000580001D0480FFF75DFF80E043480068FE
:1007300050B94248001D006830B940480830006890
:1007400010B9FFF74FFF6FE03C48006878B93B48AD
:10075000001D006858B9394808300068012806D1E2
:1007600000F090F834480580001D04805CE03348B8
:10077000006858B93148001D0068012806D12F488B
:100780000830006810B9FFF72DFF4DE02B480068D6
:1007900080B92A48001D006801280BD1274808307D
:1007A0000068012806D100F0B9F823480580001D33
:1007B000048039E02148006801280ED11F48001D3F
:1007C000006850B91D480830006830B900F038F8AA
:1007D00019480580001D048026E01848006801289B
:1007E0000FD11648001D006801280AD113480830AF
:1007F000006830B9FFF70AFF0F480580001D04802C
:1008000012E00E48006801280CD10C48001D006859
:10081000012807D1094808300068012802D100F0FA
:100820009DF801E0FFF7DEFE6420FFF7BDFE7DE7E7
:10083000A00121420080224234340140148121422F
:1008400010B540F252300C49088040F23E30091D8C
:10085000088000200949086001200949C1F8840185
:1008600006490831086000200549C1F8A0010A20A6
:10087000FFF79AFE10BD0000343401408081214210
:100880000080214210B540F252300C49088040F2FD
:100890006630091D088001200949086000200949C7
:1008A000C1F8840106490831086001200549C1F8F2
:1008B000A0010F20FFF778FE10BD00003434014086
:1008C00080812142008021421248806940F0080066
:1008D000104988611048006820F470000E490860D3
:1008E0000846006840F4800008600846006820F070
:1008F000706008600846006840F080600860084644
:10090000006820F0704008600846006840F08040B1
:1009100008607047001002400008014010B5012037
:100920000B49086000200B49C1F8840108490831CF
:1009300008600120064920310860C8200649088067
:10094000A020091D08804FF4AF70FFF72DFE10BDE9
:100950008081214200802142343401400020064938
:1009600008600649C1F88401034908310860034959
:10097000C1F8A0017047000080812142008021421F
:10098000A0090008000000200C0000006C01000815
:10099000AC0900080C0000202C05000088010008AC
:0C09A0000000000000000000000000004B
:0400000508000131BD
:00000001FF
